{
    "contractName": "ChainBattles",
    "abi": [
        {
            "inputs": [],
            "stateMutability": "nonpayable",
            "type": "constructor"
        },
        {
            "anonymous": false,
            "inputs": [
                {
                    "indexed": true,
                    "internalType": "address",
                    "name": "owner",
                    "type": "address"
                },
                {
                    "indexed": true,
                    "internalType": "address",
                    "name": "approved",
                    "type": "address"
                },
                {
                    "indexed": true,
                    "internalType": "uint256",
                    "name": "tokenId",
                    "type": "uint256"
                }
            ],
            "name": "Approval",
            "type": "event"
        },
        {
            "anonymous": false,
            "inputs": [
                {
                    "indexed": true,
                    "internalType": "address",
                    "name": "owner",
                    "type": "address"
                },
                {
                    "indexed": true,
                    "internalType": "address",
                    "name": "operator",
                    "type": "address"
                },
                {
                    "indexed": false,
                    "internalType": "bool",
                    "name": "approved",
                    "type": "bool"
                }
            ],
            "name": "ApprovalForAll",
            "type": "event"
        },
        {
            "anonymous": false,
            "inputs": [
                {
                    "indexed": true,
                    "internalType": "address",
                    "name": "from",
                    "type": "address"
                },
                {
                    "indexed": true,
                    "internalType": "address",
                    "name": "to",
                    "type": "address"
                },
                {
                    "indexed": true,
                    "internalType": "uint256",
                    "name": "tokenId",
                    "type": "uint256"
                }
            ],
            "name": "Transfer",
            "type": "event"
        },
        {
            "inputs": [
                {
                    "internalType": "address",
                    "name": "to",
                    "type": "address"
                },
                {
                    "internalType": "uint256",
                    "name": "tokenId",
                    "type": "uint256"
                }
            ],
            "name": "approve",
            "outputs": [],
            "stateMutability": "nonpayable",
            "type": "function"
        },
        {
            "inputs": [
                {
                    "internalType": "address",
                    "name": "owner",
                    "type": "address"
                }
            ],
            "name": "balanceOf",
            "outputs": [
                {
                    "internalType": "uint256",
                    "name": "",
                    "type": "uint256"
                }
            ],
            "stateMutability": "view",
            "type": "function"
        },
        {
            "inputs": [
                {
                    "internalType": "uint256",
                    "name": "tokenId",
                    "type": "uint256"
                }
            ],
            "name": "generateCharacter",
            "outputs": [
                {
                    "internalType": "string",
                    "name": "",
                    "type": "string"
                }
            ],
            "stateMutability": "nonpayable",
            "type": "function"
        },
        {
            "inputs": [
                {
                    "internalType": "uint256",
                    "name": "tokenId",
                    "type": "uint256"
                }
            ],
            "name": "getApproved",
            "outputs": [
                {
                    "internalType": "address",
                    "name": "",
                    "type": "address"
                }
            ],
            "stateMutability": "view",
            "type": "function"
        },
        {
            "inputs": [
                {
                    "internalType": "uint256",
                    "name": "tokenId",
                    "type": "uint256"
                }
            ],
            "name": "getLevels",
            "outputs": [
                {
                    "internalType": "string",
                    "name": "",
                    "type": "string"
                }
            ],
            "stateMutability": "view",
            "type": "function"
        },
        {
            "inputs": [
                {
                    "internalType": "uint256",
                    "name": "tokenId",
                    "type": "uint256"
                }
            ],
            "name": "getTokenURI",
            "outputs": [
                {
                    "internalType": "string",
                    "name": "",
                    "type": "string"
                }
            ],
            "stateMutability": "nonpayable",
            "type": "function"
        },
        {
            "inputs": [
                {
                    "internalType": "address",
                    "name": "owner",
                    "type": "address"
                },
                {
                    "internalType": "address",
                    "name": "operator",
                    "type": "address"
                }
            ],
            "name": "isApprovedForAll",
            "outputs": [
                {
                    "internalType": "bool",
                    "name": "",
                    "type": "bool"
                }
            ],
            "stateMutability": "view",
            "type": "function"
        },
        {
            "inputs": [],
            "name": "mint",
            "outputs": [],
            "stateMutability": "nonpayable",
            "type": "function"
        },
        {
            "inputs": [],
            "name": "name",
            "outputs": [
                {
                    "internalType": "string",
                    "name": "",
                    "type": "string"
                }
            ],
            "stateMutability": "view",
            "type": "function"
        },
        {
            "inputs": [
                {
                    "internalType": "uint256",
                    "name": "tokenId",
                    "type": "uint256"
                }
            ],
            "name": "ownerOf",
            "outputs": [
                {
                    "internalType": "address",
                    "name": "",
                    "type": "address"
                }
            ],
            "stateMutability": "view",
            "type": "function"
        },
        {
            "inputs": [
                {
                    "internalType": "address",
                    "name": "from",
                    "type": "address"
                },
                {
                    "internalType": "address",
                    "name": "to",
                    "type": "address"
                },
                {
                    "internalType": "uint256",
                    "name": "tokenId",
                    "type": "uint256"
                }
            ],
            "name": "safeTransferFrom",
            "outputs": [],
            "stateMutability": "nonpayable",
            "type": "function"
        },
        {
            "inputs": [
                {
                    "internalType": "address",
                    "name": "from",
                    "type": "address"
                },
                {
                    "internalType": "address",
                    "name": "to",
                    "type": "address"
                },
                {
                    "internalType": "uint256",
                    "name": "tokenId",
                    "type": "uint256"
                },
                {
                    "internalType": "bytes",
                    "name": "data",
                    "type": "bytes"
                }
            ],
            "name": "safeTransferFrom",
            "outputs": [],
            "stateMutability": "nonpayable",
            "type": "function"
        },
        {
            "inputs": [
                {
                    "internalType": "address",
                    "name": "operator",
                    "type": "address"
                },
                {
                    "internalType": "bool",
                    "name": "approved",
                    "type": "bool"
                }
            ],
            "name": "setApprovalForAll",
            "outputs": [],
            "stateMutability": "nonpayable",
            "type": "function"
        },
        {
            "inputs": [
                {
                    "internalType": "bytes4",
                    "name": "interfaceId",
                    "type": "bytes4"
                }
            ],
            "name": "supportsInterface",
            "outputs": [
                {
                    "internalType": "bool",
                    "name": "",
                    "type": "bool"
                }
            ],
            "stateMutability": "view",
            "type": "function"
        },
        {
            "inputs": [],
            "name": "symbol",
            "outputs": [
                {
                    "internalType": "string",
                    "name": "",
                    "type": "string"
                }
            ],
            "stateMutability": "view",
            "type": "function"
        },
        {
            "inputs": [
                {
                    "internalType": "uint256",
                    "name": "",
                    "type": "uint256"
                }
            ],
            "name": "tokenIdToLevels",
            "outputs": [
                {
                    "internalType": "uint256",
                    "name": "",
                    "type": "uint256"
                }
            ],
            "stateMutability": "view",
            "type": "function"
        },
        {
            "inputs": [
                {
                    "internalType": "uint256",
                    "name": "tokenId",
                    "type": "uint256"
                }
            ],
            "name": "tokenURI",
            "outputs": [
                {
                    "internalType": "string",
                    "name": "",
                    "type": "string"
                }
            ],
            "stateMutability": "view",
            "type": "function"
        },
        {
            "inputs": [
                {
                    "internalType": "uint256",
                    "name": "tokenId",
                    "type": "uint256"
                }
            ],
            "name": "train",
            "outputs": [],
            "stateMutability": "nonpayable",
            "type": "function"
        },
        {
            "inputs": [
                {
                    "internalType": "address",
                    "name": "from",
                    "type": "address"
                },
                {
                    "internalType": "address",
                    "name": "to",
                    "type": "address"
                },
                {
                    "internalType": "uint256",
                    "name": "tokenId",
                    "type": "uint256"
                }
            ],
            "name": "transferFrom",
            "outputs": [],
            "stateMutability": "nonpayable",
            "type": "function"
        }
    ],
    "bytecode": "60806040523480156200001157600080fd5b506040518060400160405280600d81526020016c436861696e20426174746c657360981b815250604051806040016040528060058152602001644342544c5360d81b815250816000908162000067919062000124565b50600162000076828262000124565b505050620001f0565b634e487b7160e01b600052604160045260246000fd5b600181811c90821680620000aa57607f821691505b602082108103620000cb57634e487b7160e01b600052602260045260246000fd5b50919050565b601f8211156200011f57600081815260208120601f850160051c81016020861015620000fa5750805b601f850160051c820191505b818110156200011b5782815560010162000106565b5050505b505050565b81516001600160401b038111156200014057620001406200007f565b620001588162000151845462000095565b84620000d1565b602080601f831160018114620001905760008415620001775750858301515b600019600386901b1c1916600185901b1785556200011b565b600085815260208120601f198616915b82811015620001c157888601518255948401946001909101908401620001a0565b5085821015620001e05787850151600019600388901b60f8161c191681555b5050505050600190811b01905550565b611d7880620002006000396000f3fe608060405234801561001057600080fd5b50600436106101215760003560e01c806342842e0e116100ad578063b88d4fde11610071578063b88d4fde14610259578063c6a4342f1461026c578063c87b56dd1461028c578063e985e9c51461029f578063f43785f9146102b257600080fd5b806342842e0e146101f75780636352211e1461020a57806370a082311461021d57806395d89b411461023e578063a22cb4651461024657600080fd5b80630daefed5116100f45780630daefed5146101a35780631249c58b146101b657806323b872dd146101be578063368004ed146101d15780633bb3a24d146101e457600080fd5b806301ffc9a71461012657806306fdde031461014e578063081812fc14610163578063095ea7b31461018e575b600080fd5b61013961013436600461136c565b6102c5565b60405190151581526020015b60405180910390f35b610156610317565b60405161014591906113d9565b6101766101713660046113ec565b6103a9565b6040516001600160a01b039091168152602001610145565b6101a161019c366004611421565b6103d0565b005b6101566101b13660046113ec565b6104ea565b6101a1610548565b6101a16101cc36600461144b565b610591565b6101a16101df3660046113ec565b6105c2565b6101566101f23660046113ec565b6106b6565b6101a161020536600461144b565b610707565b6101766102183660046113ec565b610722565b61023061022b366004611487565b610782565b604051908152602001610145565b610156610808565b6101a16102543660046114a2565b610817565b6101a16102673660046114f4565b610822565b61023061027a3660046113ec565b60086020526000908152604090205481565b61015661029a3660046113ec565b61085a565b6101396102ad3660046115d0565b61096a565b6101566102c03660046113ec565b610998565b60006001600160e01b031982166380ac58cd60e01b14806102f657506001600160e01b03198216635b5e139f60e01b145b8061031157506301ffc9a760e01b6001600160e01b03198316145b92915050565b60606000805461032690611603565b80601f016020809104026020016040519081016040528092919081815260200182805461035290611603565b801561039f5780601f106103745761010080835404028352916020019161039f565b820191906000526020600020905b81548152906001019060200180831161038257829003601f168201915b5050505050905090565b60006103b4826109ba565b506000908152600460205260409020546001600160a01b031690565b60006103db82610722565b9050806001600160a01b0316836001600160a01b03160361044d5760405162461bcd60e51b815260206004820152602160248201527f4552433732313a20617070726f76616c20746f2063757272656e74206f776e656044820152603960f91b60648201526084015b60405180910390fd5b336001600160a01b03821614806104695750610469813361096a565b6104db5760405162461bcd60e51b815260206004820152603e60248201527f4552433732313a20617070726f76652063616c6c6572206973206e6f7420746f60448201527f6b656e206f776e6572206e6f7220617070726f76656420666f7220616c6c00006064820152608401610444565b6104e58383610a19565b505050565b606060006104f783610998565b6040516020016105079190611659565b604051602081830303815290604052905061052181610a87565b60405160200161053191906118b1565b604051602081830303815290604052915050919050565b610556600780546001019055565b600061056160075490565b905061056d3382610bda565b60008181526008602052604081205561058e81610589816106b6565b610bf4565b50565b61059b3382610c87565b6105b75760405162461bcd60e51b8152600401610444906118f6565b6104e5838383610ce5565b6000818152600260205260409020546001600160a01b03166106265760405162461bcd60e51b815260206004820152601c60248201527f506c656173652075736520616e206578697374696e6720546f6b656e000000006044820152606401610444565b3361063082610722565b6001600160a01b0316146106915760405162461bcd60e51b815260206004820152602260248201527f596f75206d757374206f776e2074686973204e465420746f20747261696e2069604482015261742160f01b6064820152608401610444565b60008181526008602052604090206001908190556106b282610589816106b6565b5050565b606060006106c383610e81565b6106cc846104ea565b6040516020016106dd929190611944565b60405160208183030381529060405290506106f781610a87565b6040516020016105319190611a0c565b6104e583838360405180602001604052806000815250610822565b6000818152600260205260408120546001600160a01b0316806103115760405162461bcd60e51b8152602060048201526018602482015277115490cdcc8c4e881a5b9d985b1a59081d1bdad95b88125160421b6044820152606401610444565b60006001600160a01b0382166107ec5760405162461bcd60e51b815260206004820152602960248201527f4552433732313a2061646472657373207a65726f206973206e6f7420612076616044820152683634b21037bbb732b960b91b6064820152608401610444565b506001600160a01b031660009081526003602052604090205490565b60606001805461032690611603565b6106b2338383610f82565b61082c3383610c87565b6108485760405162461bcd60e51b8152600401610444906118f6565b61085484848484611050565b50505050565b6060610865826109ba565b6000828152600660205260408120805461087e90611603565b80601f01602080910402602001604051908101604052809291908181526020018280546108aa90611603565b80156108f75780601f106108cc576101008083540402835291602001916108f7565b820191906000526020600020905b8154815290600101906020018083116108da57829003601f168201915b50505050509050600061091560408051602081019091526000815290565b90508051600003610927575092915050565b815115610959578082604051602001610941929190611a51565b60405160208183030381529060405292505050919050565b61096284611083565b949350505050565b6001600160a01b03918216600090815260056020908152604080832093909416825291909152205460ff1690565b6000818152600860205260409020546060906109b381610e81565b9392505050565b6000818152600260205260409020546001600160a01b031661058e5760405162461bcd60e51b8152602060048201526018602482015277115490cdcc8c4e881a5b9d985b1a59081d1bdad95b88125160421b6044820152606401610444565b600081815260046020526040902080546001600160a01b0319166001600160a01b0384169081179091558190610a4e82610722565b6001600160a01b03167f8c5be1e5ebec7d5bd14f71427d1e84f3dd0314c0f7b2291e5b200ac8c7c3b92560405160405180910390a45050565b60608151600003610aa657505060408051602081019091526000815290565b6000604051806060016040528060408152602001611d036040913990506000600384516002610ad59190611a96565b610adf9190611abf565b610aea906004611ad3565b67ffffffffffffffff811115610b0257610b026114de565b6040519080825280601f01601f191660200182016040528015610b2c576020820181803683370190505b509050600182016020820185865187015b80821015610b98576003820191508151603f8160121c168501518453600184019350603f81600c1c168501518453600184019350603f8160061c168501518453600184019350603f8116850151845350600183019250610b3d565b5050600386510660018114610bb45760028114610bc757610bcf565b603d6001830353603d6002830353610bcf565b603d60018303535b509195945050505050565b6106b28282604051806020016040528060008152506110e0565b6000828152600260205260409020546001600160a01b0316610c6f5760405162461bcd60e51b815260206004820152602e60248201527f45524337323155524953746f726167653a2055524920736574206f66206e6f6e60448201526d32bc34b9ba32b73a103a37b5b2b760911b6064820152608401610444565b60008281526006602052604090206104e58282611b40565b600080610c9383610722565b9050806001600160a01b0316846001600160a01b03161480610cba5750610cba818561096a565b806109625750836001600160a01b0316610cd3846103a9565b6001600160a01b031614949350505050565b826001600160a01b0316610cf882610722565b6001600160a01b031614610d5c5760405162461bcd60e51b815260206004820152602560248201527f4552433732313a207472616e736665722066726f6d20696e636f72726563742060448201526437bbb732b960d91b6064820152608401610444565b6001600160a01b038216610dbe5760405162461bcd60e51b8152602060048201526024808201527f4552433732313a207472616e7366657220746f20746865207a65726f206164646044820152637265737360e01b6064820152608401610444565b610dc9600082610a19565b6001600160a01b0383166000908152600360205260408120805460019290610df2908490611c00565b90915550506001600160a01b0382166000908152600360205260408120805460019290610e20908490611a96565b909155505060008181526002602052604080822080546001600160a01b0319166001600160a01b0386811691821790925591518493918716917fddf252ad1be2c89b69c2b068fc378daa952ba7f163c4a11628f55a4df523b3ef91a4505050565b606081600003610ea85750506040805180820190915260018152600360fc1b602082015290565b8160005b8115610ed25780610ebc81611c13565b9150610ecb9050600a83611abf565b9150610eac565b60008167ffffffffffffffff811115610eed57610eed6114de565b6040519080825280601f01601f191660200182016040528015610f17576020820181803683370190505b5090505b841561096257610f2c600183611c00565b9150610f39600a86611c2c565b610f44906030611a96565b60f81b818381518110610f5957610f59611c40565b60200101906001600160f81b031916908160001a905350610f7b600a86611abf565b9450610f1b565b816001600160a01b0316836001600160a01b031603610fe35760405162461bcd60e51b815260206004820152601960248201527f4552433732313a20617070726f766520746f2063616c6c6572000000000000006044820152606401610444565b6001600160a01b03838116600081815260056020908152604080832094871680845294825291829020805460ff191686151590811790915591519182527f17307eab39ab6107e8899845ad3d59bd9653f200f220920489ca2b5937696c31910160405180910390a3505050565b61105b848484610ce5565b61106784848484611113565b6108545760405162461bcd60e51b815260040161044490611c56565b606061108e826109ba565b60006110a560408051602081019091526000815290565b905060008151116110c557604051806020016040528060008152506109b3565b806110cf84610e81565b604051602001610531929190611a51565b6110ea8383611214565b6110f76000848484611113565b6104e55760405162461bcd60e51b815260040161044490611c56565b60006001600160a01b0384163b1561120957604051630a85bd0160e11b81526001600160a01b0385169063150b7a0290611157903390899088908890600401611ca8565b6020604051808303816000875af1925050508015611192575060408051601f3d908101601f1916820190925261118f91810190611ce5565b60015b6111ef573d8080156111c0576040519150601f19603f3d011682016040523d82523d6000602084013e6111c5565b606091505b5080516000036111e75760405162461bcd60e51b815260040161044490611c56565b805181602001fd5b6001600160e01b031916630a85bd0160e11b149050610962565b506001949350505050565b6001600160a01b03821661126a5760405162461bcd60e51b815260206004820181905260248201527f4552433732313a206d696e7420746f20746865207a65726f20616464726573736044820152606401610444565b6000818152600260205260409020546001600160a01b0316156112cf5760405162461bcd60e51b815260206004820152601c60248201527f4552433732313a20746f6b656e20616c7265616479206d696e746564000000006044820152606401610444565b6001600160a01b03821660009081526003602052604081208054600192906112f8908490611a96565b909155505060008181526002602052604080822080546001600160a01b0319166001600160a01b03861690811790915590518392907fddf252ad1be2c89b69c2b068fc378daa952ba7f163c4a11628f55a4df523b3ef908290a45050565b6001600160e01b03198116811461058e57600080fd5b60006020828403121561137e57600080fd5b81356109b381611356565b60005b838110156113a457818101518382015260200161138c565b50506000910152565b600081518084526113c5816020860160208601611389565b601f01601f19169290920160200192915050565b6020815260006109b360208301846113ad565b6000602082840312156113fe57600080fd5b5035919050565b80356001600160a01b038116811461141c57600080fd5b919050565b6000806040838503121561143457600080fd5b61143d83611405565b946020939093013593505050565b60008060006060848603121561146057600080fd5b61146984611405565b925061147760208501611405565b9150604084013590509250925092565b60006020828403121561149957600080fd5b6109b382611405565b600080604083850312156114b557600080fd5b6114be83611405565b9150602083013580151581146114d357600080fd5b809150509250929050565b634e487b7160e01b600052604160045260246000fd5b6000806000806080858703121561150a57600080fd5b61151385611405565b935061152160208601611405565b925060408501359150606085013567ffffffffffffffff8082111561154557600080fd5b818701915087601f83011261155957600080fd5b81358181111561156b5761156b6114de565b604051601f8201601f19908116603f01168101908382118183101715611593576115936114de565b816040528281528a60208487010111156115ac57600080fd5b82602086016020830137600060208483010152809550505050505092959194509250565b600080604083850312156115e357600080fd5b6115ec83611405565b91506115fa60208401611405565b90509250929050565b600181811c9082168061161757607f821691505b60208210810361163757634e487b7160e01b600052602260045260246000fd5b50919050565b6000815161164f818560208601611389565b9290920192915050565b7f3c73766720786d6c6e733d22687474703a2f2f7777772e77332e6f72672f323081527f30302f73766722207072657365727665417370656374526174696f3d22784d6960208201527f6e594d696e206d656574222076696577426f783d223020302033353020333530604082015261111f60f11b60608201527f3c7374796c653e2e62617365207b2066696c6c3a2077686974653b20666f6e7460628201527f2d66616d696c793a2073657269663b20666f6e742d73697a653a20313470783b608282015269103e9e17b9ba3cb6329f60b11b60a28201527f3c726563742077696474683d223130302522206865696768743d22313030252260ac8201526f103334b6361e91313630b1b59110179f60811b60cc8201527f3c7465787420783d223530252220793d223430252220636c6173733d2262617360dc8201527f652220646f6d696e616e742d626173656c696e653d226d6964646c652220746560fc820152723c3a16b0b731b437b91e9136b4b2323632911f60691b61011c820152662bb0b93934b7b960c91b61012f82015260006109b361189f61180761189961188561181a610136880184565b661e17ba32bc3a1f60c91b815260070190565b7f3c7465787420783d223530252220793d223530252220636c6173733d2262617381527f652220646f6d696e616e742d626173656c696e653d226d6964646c65222074656020820152723c3a16b0b731b437b91e9136b4b2323632911f60691b604082015260530190565b6702632bb32b6399d160c51b815260080190565b8661163d565b651e17b9bb339f60d11b815260060190565b7f646174613a696d6167652f7376672b786d6c3b6261736536342c0000000000008152600082516118e981601a850160208701611389565b91909101601a0192915050565b6020808252602e908201527f4552433732313a2063616c6c6572206973206e6f7420746f6b656e206f776e6560408201526d1c881b9bdc88185c1c1c9bdd995960921b606082015260800190565b607b60f81b81527f226e616d65223a2022436861696e20426174746c657320230000000000000000600182015260008351611986816019850160208801611389565b61088b60f21b60199184019182018190527f226465736372697074696f6e223a2022426174746c6573206f6e20636861696e601b830152603b820152691134b6b0b3b2911d101160b11b603d82015283516119e8816047840160208801611389565b601160f91b60479290910191820152607d60f81b6048820152604901949350505050565b7f646174613a6170706c69636174696f6e2f6a736f6e3b6261736536342c000000815260008251611a4481601d850160208701611389565b91909101601d0192915050565b60008351611a63818460208801611389565b835190830190611a77818360208801611389565b01949350505050565b634e487b7160e01b600052601160045260246000fd5b8082018082111561031157610311611a80565b634e487b7160e01b600052601260045260246000fd5b600082611ace57611ace611aa9565b500490565b6000816000190483118215151615611aed57611aed611a80565b500290565b601f8211156104e557600081815260208120601f850160051c81016020861015611b195750805b601f850160051c820191505b81811015611b3857828155600101611b25565b505050505050565b815167ffffffffffffffff811115611b5a57611b5a6114de565b611b6e81611b688454611603565b84611af2565b602080601f831160018114611ba35760008415611b8b5750858301515b600019600386901b1c1916600185901b178555611b38565b600085815260208120601f198616915b82811015611bd257888601518255948401946001909101908401611bb3565b5085821015611bf05787850151600019600388901b60f8161c191681555b5050505050600190811b01905550565b8181038181111561031157610311611a80565b600060018201611c2557611c25611a80565b5060010190565b600082611c3b57611c3b611aa9565b500690565b634e487b7160e01b600052603260045260246000fd5b60208082526032908201527f4552433732313a207472616e7366657220746f206e6f6e20455243373231526560408201527131b2b4bb32b91034b6b83632b6b2b73a32b960711b606082015260800190565b6001600160a01b0385811682528416602082015260408101839052608060608201819052600090611cdb908301846113ad565b9695505050505050565b600060208284031215611cf757600080fd5b81516109b38161135656fe4142434445464748494a4b4c4d4e4f505152535455565758595a6162636465666768696a6b6c6d6e6f707172737475767778797a303132333435363738392b2fa26469706673582212201843eb4013fd5ffba3464f9f8102e1eb0975899492063512be62c94c18eade5364736f6c63430008100033",
    "sourcePath": "/home/dheeraj/road-to-web3-wk3/ChainBattles/contracts/ChainBattles.sol",
    "compiler": {
        "name": "solc",
        "version": "0.8.16+commit.07a7930e"
    },
    "functionHashes": {
        "approve(address,uint256)": "095ea7b3",
        "balanceOf(address)": "70a08231",
        "generateCharacter(uint256)": "0daefed5",
        "getApproved(uint256)": "081812fc",
        "getLevels(uint256)": "f43785f9",
        "getTokenURI(uint256)": "3bb3a24d",
        "isApprovedForAll(address,address)": "e985e9c5",
        "mint()": "1249c58b",
        "name()": "06fdde03",
        "ownerOf(uint256)": "6352211e",
        "safeTransferFrom(address,address,uint256)": "42842e0e",
        "safeTransferFrom(address,address,uint256,bytes)": "b88d4fde",
        "setApprovalForAll(address,bool)": "a22cb465",
        "supportsInterface(bytes4)": "01ffc9a7",
        "symbol()": "95d89b41",
        "tokenIdToLevels(uint256)": "c6a4342f",
        "tokenURI(uint256)": "c87b56dd",
        "train(uint256)": "368004ed",
        "transferFrom(address,address,uint256)": "23b872dd"
    },
    "gasEstimates": {
        "creation": {
            "codeDepositCost": "1508800",
            "executionCost": "infinite",
            "totalCost": "infinite"
        },
        "external": {
            "approve(address,uint256)": "infinite",
            "balanceOf(address)": "2656",
            "generateCharacter(uint256)": "infinite",
            "getApproved(uint256)": "4792",
            "getLevels(uint256)": "infinite",
            "getTokenURI(uint256)": "infinite",
            "isApprovedForAll(address,address)": "infinite",
            "mint()": "infinite",
            "name()": "infinite",
            "ownerOf(uint256)": "2583",
            "safeTransferFrom(address,address,uint256)": "infinite",
            "safeTransferFrom(address,address,uint256,bytes)": "infinite",
            "setApprovalForAll(address,bool)": "26794",
            "supportsInterface(bytes4)": "534",
            "symbol()": "infinite",
            "tokenIdToLevels(uint256)": "2482",
            "tokenURI(uint256)": "infinite",
            "train(uint256)": "infinite",
            "transferFrom(address,address,uint256)": "infinite"
        }
    }
}